tcpdump: verbose output suppressed, use -v or -vv for full protocol decode
listening on eth0, link-type EN10MB (Ethernet), capture size 262144 bytes
19:39:16.930958 IP lamp-ubuntu-s-1vcpu-1gb-tor1-01.ssh > 198.96.87.75.51219: Flags [P.], seq 282691890:282691998, ack 2445247077, win 501, length 108
        0x0000:  fe00 0000 0101 7ea3 ac19 12ff 0800 4510  ......~.......E.
        0x0010:  0094 a9a6 4000 4006 c721 9fcb 0c15 c660  ....@.@..!.....`
        0x0020:  574b 0016 c813 10d9 8932 91bf 8265 5018  WK.......2...eP.
        0x0030:  01f5 ca12 0000 547d f56c 0c33 7d6b 37b7  ......T}.l.3}k7.
        0x0040:  ca08 45b3 1075 7b91 b45e 41af 1ee5 c8fe  ..E..u{..^A.....
        0x0050:  06e1 e5af 206d 5b35 fbf5 f7ca 1b5d b26b  .....m[5.....].k
        0x0060:  018c b20c 45d9 36ae 85cb 22f9 90eb 39ed  ....E.6..."...9.
        0x0070:  34c8 3626 1aec 8866 20fa d5b8 73b3 4ec2  4.6&...f....s.N.
        0x0080:  cfe1 4390 7398 504f c5a9 87a0 ee29 0936  ..C.s.PO.....).6
        0x0090:  125e ab7d 7715 879a 55df c78e aab7 1b51  .^.}w...U......Q
        0x00a0:  a799                                     ..
19:39:16.931049 IP lamp-ubuntu-s-1vcpu-1gb-tor1-01.ssh > 198.96.87.75.51219: Flags [P.], seq 108:252, ack 1, win 501, length 144
        0x0000:  fe00 0000 0101 7ea3 ac19 12ff 0800 4510  ......~.......E.
        0x0010:  00b8 a9a7 4000 4006 c6fc 9fcb 0c15 c660  ....@.@........`
        0x0020:  574b 0016 c813 10d9 899e 91bf 8265 5018  WK...........eP.
        0x0030:  01f5 ca36 0000 08d1 80b5 8770 8f33 5cca  ...6.......p.3\.
        0x0040:  f0b3 fc51 a482 fd2f 4797 4d02 eac3 c7af  ...Q.../G.M.....
        0x0050:  adbd 3ed8 ffea f684 0dda eae4 1a60 b777  ..>..........`.w
        0x0060:  9f36 7c1a cb55 44d2 94e1 d6b7 a3c0 ce46  .6|..UD........F
        0x0070:  7da9 64a2 a003 5459 dfbb 2e4b 2890 9c32  }.d...TY...K(..2
        0x0080:  7ca2 30c7 c4ad 7d20 3547 604a ceaa 35fa  |.0...}.5G`J..5.
        0x0090:  0a51 c7c2 a785 af6c fdd4 64e4 2f38 8401  .Q.....l..d./8..
        0x00a0:  d114 0aa1 e66b b043 1d1a c125 4031 e5d5  .....k.C...%@1..
        0x00b0:  c574 0172 96df 8325 95ea b86c f668 6d8a  .t.r...%...l.hm.
        0x00c0:  8f12 d9d9 d316                           ......
19:39:16.931107 IP lamp-ubuntu-s-1vcpu-1gb-tor1-01.ssh > 198.96.87.75.51219: Flags [P.], seq 252:288, ack 1, win 501, length 36
        0x0000:  fe00 0000 0101 7ea3 ac19 12ff 0800 4510  ......~.......E.
        0x0010:  004c a9a8 4000 4006 c767 9fcb 0c15 c660  .L..@.@..g.....`
        0x0020:  574b 0016 c813 10d9 8a2e 91bf 8265 5018  WK...........eP.
        0x0030:  01f5 c9ca 0000 b67e f174 6eba 09f3 e23e  .......~.tn....>
        0x0040:  6684 ac6c 19c7 f5b3 6c55 9e28 5c57 35ab  f..l....lU.(\W5.
        0x0050:  649d 899e cfb8 4cfb b88a                 d.....L...
19:39:16.931832 IP lamp-ubuntu-s-1vcpu-1gb-tor1-01.40399 > 67.207.67.2.domain: 4573+ [1au] PTR? 75.87.96.198.in-addr.arpa. (54)
        0x0000:  fe00 0000 0101 7ea3 ac19 12ff 0800 4500  ......~.......E.
        0x0010:  0052 2a64 4000 4011 dd85 9fcb 0c15 43cf  .R*d@.@.......C.
        0x0020:  4302 9dcf 0035 003e 3301 11dd 0100 0001  C....5.>3.......
        0x0030:  0000 0000 0001 0237 3502 3837 0239 3603  .......75.87.96.
        0x0040:  3139 3807 696e 2d61 6464 7204 6172 7061  198.in-addr.arpa
        0x0050:  0000 0c00 0100 0029 0200 0000 0000 0000  .......)........
19:39:16.931900 IP lamp-ubuntu-s-1vcpu-1gb-tor1-01.46764 > 67.207.67.2.domain: 42498+ [1au] PTR? 75.87.96.198.in-addr.arpa. (54)
        0x0000:  fe00 0000 0101 7ea3 ac19 12ff 0800 4500  ......~.......E.
        0x0010:  0052 b8f8 4000 4011 4ef1 9fcb 0c15 43cf  .R..@.@.N.....C.
        0x0020:  4302 b6ac 0035 003e 3301 a602 0100 0001  C....5.>3.......
        0x0030:  0000 0000 0001 0237 3502 3837 0239 3603  .......75.87.96.
        0x0040:  3139 3807 696e 2d61 6464 7204 6172 7061  198.in-addr.arpa
        0x0050:  0000 0c00 0100 0029 0200 0000 0000 0000  .......)........
19:39:16.931952 IP lamp-ubuntu-s-1vcpu-1gb-tor1-01.35012 > 67.207.67.2.domain: 17511+ [1au] PTR? 75.87.96.198.in-addr.arpa. (54)
        0x0000:  fe00 0000 0101 7ea3 ac19 12ff 0800 4500  ......~.......E.
        0x0010:  0052 bbaf 4000 4011 4c3a 9fcb 0c15 43cf  .R..@.@.L:....C.
        0x0020:  4302 88c4 0035 003e 3301 4467 0100 0001  C....5.>3.Dg....
        0x0030:  0000 0000 0001 0237 3502 3837 0239 3603  .......75.87.96.
        0x0040:  3139 3807 696e 2d61 6464 7204 6172 7061  198.in-addr.arpa
        0x0050:  0000 0c00 0100 0029 0200 0000 0000 0000  .......)........
19:39:16.933372 IP 67.207.67.2.domain > lamp-ubuntu-s-1vcpu-1gb-tor1-01.46764: 42498 NXDomain 0/1/1 (119)
        0x0000:  7ea3 ac19 12ff fe00 0000 0101 0800 4500  ~.............E.
        0x0010:  0093 dd18 0000 3c11 6e90 43cf 4302 9fcb  ......<.n.C.C...
        0x0020:  0c15 0035 b6ac 007f a1e1 a602 8183 0001  ...5............
        0x0030:  0000 0001 0001 0237 3502 3837 0239 3603  .......75.87.96.
        0x0040:  3139 3807 696e 2d61 6464 7204 6172 7061  198.in-addr.arpa
        0x0050:  0000 0c00 01c0 0f00 0600 0100 000d 0100  ................
        0x0060:  3503 6762 630b 6765 6f72 6765 6272 6f77  5.gbc.georgebrow
        0x0070:  6e02 6361 000a 686f 7374 6d61 7374 6572  n.ca..hostmaster
        0x0080:  c03b 77de 0d70 0000 0384 0000 0258 0001  .;w..p.......X..
        0x0090:  5180 0000 0e10 0000 2902 0000 0000 0000  Q.......).......
        0x00a0:  00                                       .
19:39:16.933373 IP 67.207.67.2.domain > lamp-ubuntu-s-1vcpu-1gb-tor1-01.35012: 17511 NXDomain 0/1/1 (119)
        0x0000:  7ea3 ac19 12ff fe00 0000 0101 0800 4500  ~.............E.
        0x0010:  0093 0545 0000 3c11 4664 43cf 4302 9fcb  ...E..<.FdC.C...
        0x0020:  0c15 0035 88c4 007f 3165 4467 8183 0001  ...5....1eDg....
        0x0030:  0000 0001 0001 0237 3502 3837 0239 3603  .......75.87.96.
        0x0040:  3139 3807 696e 2d61 6464 7204 6172 7061  198.in-addr.arpa
        0x0050:  0000 0c00 01c0 0f00 0600 0100 000d 0100  ................
        0x0060:  3503 6762 630b 6765 6f72 6765 6272 6f77  5.gbc.georgebrow
        0x0070:  6e02 6361 000a 686f 7374 6d61 7374 6572  n.ca..hostmaster
        0x0080:  c03b 77de 0d70 0000 0384 0000 0258 0001  .;w..p.......X..
        0x0090:  5180 0000 0e10 0000 2902 0000 0000 0000  Q.......).......
        0x00a0:  00                                       .
19:39:16.933414 IP 67.207.67.2.domain > lamp-ubuntu-s-1vcpu-1gb-tor1-01.40399: 4573 NXDomain 0/1/1 (119)
        0x0000:  7ea3 ac19 12ff fe00 0000 0101 0800 4500  ~.............E.
        0x0010:  0093 0544 0000 3c11 4665 43cf 4302 9fcb  ...D..<.FeC.C...
        0x0020:  0c15 0035 9dcf 007f 4ee4 11dd 8183 0001  ...5....N.......
        0x0030:  0000 0001 0001 0237 3502 3837 0239 3603  .......75.87.96.
        0x0040:  3139 3807 696e 2d61 6464 7204 6172 7061  198.in-addr.arpa
        0x0050:  0000 0c00 01c0 0f00 0600 0100 000d 0100  ................
        0x0060:  3503 6762 630b 6765 6f72 6765 6272 6f77  5.gbc.georgebrow
        0x0070:  6e02 6361 000a 686f 7374 6d61 7374 6572  n.ca..hostmaster
        0x0080:  c03b 77de 0d70 0000 0384 0000 0258 0001  .;w..p.......X..
        0x0090:  5180 0000 0e10 0000 2902 0000 0000 0000  Q.......).......
        0x00a0:  00                                       .
19:39:16.933532 IP lamp-ubuntu-s-1vcpu-1gb-tor1-01.46764 > 67.207.67.2.domain: 42498+ PTR? 75.87.96.198.in-addr.arpa. (43)